:02000000E12AF3
:10000800FF00030E83018316A3000A08A4008A01D7
:100018008B1C122801308312EE008B1083162408E3
:0C0028008A00230E8300FF0E7F0E0900EB
:0400340000000800C0
:10003800083083120313FC002330FD00FD0B222837
:06004800FC0B2228080059
:10004E00103083120313FD00FD0B2B280000080057
:10005E0083160313AE1B3628831286133828831299
:10006E00861783162E1B3E288312061340288312F2
:10007E0006178316AE1A4628831286124828831254
:10008E00861683162E1A4E288312061250288312B5
:10009E000616831620185628831205145828831224
:1000AE00051085141A2085108316AE196128831247
:1000BE00861363288312861783162E1969288312D6
:1000CE0006136B28831206178316AE187128831237
:1000DE00861273288312861683162E187928831299
:1000EE0006127B2883120616831620188128831287
:1000FE00051483288312051085141A208510831683
:0C010E00201C8B281C208C2827200800B7
:10011A008316031320102D08AE002F2083162014F7
:02012A000800CB
:10012C00710DF80DF90D7408F8027508031C750FA4
:10013C00F902F00DF10D0F30FC00710DF80DF90DF9
:10014C007408701CAF28F8027508031C750FF902AF
:10015C00B428F80775080318750FF907F00DF10DA1
:10016C00FC0BA3287018C0287408F807750803182E
:08017C00750FF90700000800EF
:10018400D428803083160313A900E728C030A900BF
:10019400E7289430A900E728D430A900E728803064
:1001A400A900E728831603132908013A0319C32871
:1001B4002908023A0319C8282908033A0319CB2845
:1001C4002908043A0319CE28D1282A03F000290863
:1001D400F0077008A9007008AE002F2083162010C5
:1001E400AC012C082B0784000008031901292C08F2
:1001F4002B0784000008AD008D20AC0AF3282014DE
:020204000800F0
:0E020600831203136D088A006C088200080042
:10021400831203137408003A031D19297508003A60
:10022400031D1929FF30F0007F30F1007229831279
:100234000313FD01F901F801710870040319003476
:1002440071087506FA00FA1BFD09FB01F51F2F2939
:10025400F409F509F40A0319F50AF11F3629F0091E
:10026400F109F00A0319F10A71087504FA00FA1B7E
:100274004B2996207B185E29FD1F0034F009F109F3
:10028400F00A0319F10AF809F909F80A0319F90A35
:100294000034F51F5A29F11B56297108F90070081A
:1002A400F800F101F0013E29F101F001F00A0034F7
:1002B400F109F009FB0A3B29F80A0319F90A740841
:1002C4007802031D3E2975087902031D3E29F901B0
:1002D400F801F00A0319F10AF11F3E290000FF3466
:0202E400080010
:1002E6008529803083160313A9009829C030A900F8
:1002F60098299430A9009829D430A90098298030EB
:10030600A9009829831603132908013A03197429A9
:100316002908023A031979292908033A03197C297D
:100326002908043A03197F2982292A03F00029089B
:10033600F0077008A90020147008AE002F2083165D
:0E03460020102B08AE002F2083162014080074
:10035400831203137008F100F0010830FC007108E7
:10036400F40C0318B929FC0BB229F1010034031071
:10037400BE29F40C0318F107F10CF00CFC0BBB299B
:0203840008006F
:100386008312031385110130C70001308316AE00B6
:100396002F2001308316A9000130AA003430AB00AB
:1003A600C2200230A9000130AA002330AB00C220CF
:1003B6008030810090308B008312EF018316250870
:1003C60083126F020318542A6F0883162502A700AA
:1003D600A801031CA8030A30F4000030F500270822
:1003E600F0002808F1000A217808F0007908F100E9
:1003F60070088316A6000A30F4000030F5002708BE
:10040600F0002808F1000A2102308316A9000C30FA
:10041600AA0030307007AB0073210230A9000D30FE
:10042600AA0030302607AB0073210130A100063048
:10043600FB001330FC00AD30FD008316FD0B202AB7
:10044600FC0B202AFB0B202A00000000A10A210831
:100456003C3C031C342A83126E08003A031D342ADE
:100466001A2A83126E080319512A85150B30FB00D0
:100476002630FC005D30FD00FD0B3F2AFC0B3F2AB9
:10048600FB0B3F2A0000000001308316A900013053
:10049600AA003E30AB00C2208B01542A8312EF0A19
:1004A600E12983128511C701A001A2010130EE00E6
:0204B60008003C
:1004B800023083120313FB008630FC009930FD00E4
:0E04C800FD0B642AFC0B642AFB0B642A08005F
:1004D600831603138510051006128612061386135B
:1004E60083128510051086130613861206121C2029
:1004F6001C201C208616061685141A2085101C2022
:1005060085141A2085101C2085141A2085101C209D
:10051600061285141A2085101C2085141A208510B1
:100526008612861785141A2085101C208613061637
:1005360085141A208510061285141A2085101C2091
:1005460085141A208510061685141A2085101C207D
:10055600061285141A2085108617061786160616A3
:0E05660085141A2085101C208316201408000E
:1005740003218A110A128000840AEC0A0319ED0A85
:08058400F003031DBA2A080070
:10058C0083120313210A840030302007F000700816
:10059C00800030302207F0002108840070088000B1
:1005AC0002308316A9000B30AA008312210883168F
:0605BC00AB00C2200800A4
:1005C2008C230730831203139F040F308316860097
:1005D200F0308500831285116B228312EE01013007
:1005E2008316AE002F200C308316AE002F20013070
:1005F2008316A9000130AA005930AB00C220023094
:10060200A9000130AA004830AB00C220C6228312E2
:100612008618132B5C22A00A20080A3A031D122B0B
:10062200A001C622831206191E2B5C22A20A2208EE
:100632000A3A031D1D2BA201C62283120618342B6F
:100642005C222208F0000A30F400AA212008700778
:10065200F10071088316A2007108003C0318342BC4
:100662002208A500C32183126E080319392BEE2A32
:04067200082B3A2BEC
:10071800203084004C3083120313F0004030EC008A
:080728000330ED00BA220800C5
:02068000003444
:020682006934D9
:02068400003440
:10068600543469346D34653420344C3465346634FE
:1006960074343A342034203420346D3469346E3462
:0206A60000341E
:1006A800523445344C344134593420344F34463470
:0406B8004634003490
:1006BC00523445344C344134593420344F344E3454
:0206CC000034F8
:0206CE000034F6
:1006D0005334653474342034543469346D3465349F
:1006E0003A3420342034203420346D3469346E346C
:0206F0000034D4
:1006F200303430342D343934393420346D34693463
:100702006E342034543469346D34653472340034B8
:06071200303430340034E5
:02400E006A2125
:00000001FF
